{
  "address": "0x3Be49fF25b30812676971cAF385033B2dB2D4fb2",
  "abi": [
    {
      "inputs": [
        {
          "internalType": "address",
          "name": "oraTokenAddress",
          "type": "address"
        }
      ],
      "stateMutability": "nonpayable",
      "type": "constructor"
    },
    {
      "inputs": [],
      "name": "AlreadyReportedInCurrentBucket",
      "type": "error"
    },
    {
      "inputs": [],
      "name": "BucketMedianAlreadyRecorded",
      "type": "error"
    },
    {
      "inputs": [],
      "name": "EmptyArray",
      "type": "error"
    },
    {
      "inputs": [],
      "name": "IndexOutOfBounds",
      "type": "error"
    },
    {
      "inputs": [],
      "name": "InsufficientStake",
      "type": "error"
    },
    {
      "inputs": [],
      "name": "InvalidPrice",
      "type": "error"
    },
    {
      "inputs": [],
      "name": "MedianNotRecorded",
      "type": "error"
    },
    {
      "inputs": [],
      "name": "NoRewardsAvailable",
      "type": "error"
    },
    {
      "inputs": [],
      "name": "NodeAlreadyRegistered",
      "type": "error"
    },
    {
      "inputs": [],
      "name": "NodeAlreadySlashed",
      "type": "error"
    },
    {
      "inputs": [],
      "name": "NodeDidNotReport",
      "type": "error"
    },
    {
      "inputs": [],
      "name": "NodeNotAtGivenIndex",
      "type": "error"
    },
    {
      "inputs": [],
      "name": "NodeNotRegistered",
      "type": "error"
    },
    {
      "inputs": [],
      "name": "NotDeviated",
      "type": "error"
    },
    {
      "inputs": [],
      "name": "OnlyPastBucketsAllowed",
      "type": "error"
    },
    {
      "inputs": [],
      "name": "TransferFailed",
      "type": "error"
    },
    {
      "inputs": [],
      "name": "WaitingPeriodNotOver",
      "type": "error"
    },
    {
      "anonymous": false,
      "inputs": [
        {
          "indexed": true,
          "internalType": "uint256",
          "name": "bucketNumber",
          "type": "uint256"
        },
        {
          "indexed": false,
          "internalType": "uint256",
          "name": "medianPrice",
          "type": "uint256"
        }
      ],
      "name": "BucketMedianRecorded",
      "type": "event"
    },
    {
      "anonymous": false,
      "inputs": [
        {
          "indexed": true,
          "internalType": "address",
          "name": "node",
          "type": "address"
        },
        {
          "indexed": false,
          "internalType": "uint256",
          "name": "amount",
          "type": "uint256"
        }
      ],
      "name": "NodeExited",
      "type": "event"
    },
    {
      "anonymous": false,
      "inputs": [
        {
          "indexed": true,
          "internalType": "address",
          "name": "node",
          "type": "address"
        },
        {
          "indexed": false,
          "internalType": "uint256",
          "name": "stakedAmount",
          "type": "uint256"
        }
      ],
      "name": "NodeRegistered",
      "type": "event"
    },
    {
      "anonymous": false,
      "inputs": [
        {
          "indexed": true,
          "internalType": "address",
          "name": "node",
          "type": "address"
        },
        {
          "indexed": false,
          "internalType": "uint256",
          "name": "amount",
          "type": "uint256"
        }
      ],
      "name": "NodeRewarded",
      "type": "event"
    },
    {
      "anonymous": false,
      "inputs": [
        {
          "indexed": true,
          "internalType": "address",
          "name": "node",
          "type": "address"
        },
        {
          "indexed": false,
          "internalType": "uint256",
          "name": "amount",
          "type": "uint256"
        }
      ],
      "name": "NodeSlashed",
      "type": "event"
    },
    {
      "anonymous": false,
      "inputs": [
        {
          "indexed": true,
          "internalType": "address",
          "name": "node",
          "type": "address"
        },
        {
          "indexed": false,
          "internalType": "uint256",
          "name": "price",
          "type": "uint256"
        },
        {
          "indexed": false,
          "internalType": "uint256",
          "name": "bucketNumber",
          "type": "uint256"
        }
      ],
      "name": "PriceReported",
      "type": "event"
    },
    {
      "anonymous": false,
      "inputs": [
        {
          "indexed": true,
          "internalType": "address",
          "name": "node",
          "type": "address"
        },
        {
          "indexed": false,
          "internalType": "uint256",
          "name": "amount",
          "type": "uint256"
        }
      ],
      "name": "StakeAdded",
      "type": "event"
    },
    {
      "inputs": [],
      "name": "BUCKET_WINDOW",
      "outputs": [
        {
          "internalType": "uint256",
          "name": "",
          "type": "uint256"
        }
      ],
      "stateMutability": "view",
      "type": "function"
    },
    {
      "inputs": [],
      "name": "INACTIVITY_PENALTY",
      "outputs": [
        {
          "internalType": "uint256",
          "name": "",
          "type": "uint256"
        }
      ],
      "stateMutability": "view",
      "type": "function"
    },
    {
      "inputs": [],
      "name": "MAX_DEVIATION_BPS",
      "outputs": [
        {
          "internalType": "uint256",
          "name": "",
          "type": "uint256"
        }
      ],
      "stateMutability": "view",
      "type": "function"
    },
    {
      "inputs": [],
      "name": "MINIMUM_STAKE",
      "outputs": [
        {
          "internalType": "uint256",
          "name": "",
          "type": "uint256"
        }
      ],
      "stateMutability": "view",
      "type": "function"
    },
    {
      "inputs": [],
      "name": "MISREPORT_PENALTY",
      "outputs": [
        {
          "internalType": "uint256",
          "name": "",
          "type": "uint256"
        }
      ],
      "stateMutability": "view",
      "type": "function"
    },
    {
      "inputs": [],
      "name": "REWARD_PER_REPORT",
      "outputs": [
        {
          "internalType": "uint256",
          "name": "",
          "type": "uint256"
        }
      ],
      "stateMutability": "view",
      "type": "function"
    },
    {
      "inputs": [],
      "name": "SLASHER_REWARD_PERCENTAGE",
      "outputs": [
        {
          "internalType": "uint256",
          "name": "",
          "type": "uint256"
        }
      ],
      "stateMutability": "view",
      "type": "function"
    },
    {
      "inputs": [],
      "name": "WAITING_PERIOD",
      "outputs": [
        {
          "internalType": "uint256",
          "name": "",
          "type": "uint256"
        }
      ],
      "stateMutability": "view",
      "type": "function"
    },
    {
      "inputs": [
        {
          "internalType": "uint256",
          "name": "amount",
          "type": "uint256"
        }
      ],
      "name": "addStake",
      "outputs": [],
      "stateMutability": "nonpayable",
      "type": "function"
    },
    {
      "inputs": [
        {
          "internalType": "uint256",
          "name": "",
          "type": "uint256"
        }
      ],
      "name": "blockBuckets",
      "outputs": [
        {
          "internalType": "uint256",
          "name": "medianPrice",
          "type": "uint256"
        }
      ],
      "stateMutability": "view",
      "type": "function"
    },
    {
      "inputs": [],
      "name": "claimReward",
      "outputs": [],
      "stateMutability": "nonpayable",
      "type": "function"
    },
    {
      "inputs": [
        {
          "internalType": "uint256",
          "name": "index",
          "type": "uint256"
        }
      ],
      "name": "exitNode",
      "outputs": [],
      "stateMutability": "nonpayable",
      "type": "function"
    },
    {
      "inputs": [],
      "name": "getCurrentBucketNumber",
      "outputs": [
        {
          "internalType": "uint256",
          "name": "",
          "type": "uint256"
        }
      ],
      "stateMutability": "view",
      "type": "function"
    },
    {
      "inputs": [
        {
          "internalType": "address",
          "name": "nodeAddress",
          "type": "address"
        }
      ],
      "name": "getEffectiveStake",
      "outputs": [
        {
          "internalType": "uint256",
          "name": "",
          "type": "uint256"
        }
      ],
      "stateMutability": "view",
      "type": "function"
    },
    {
      "inputs": [],
      "name": "getLatestPrice",
      "outputs": [
        {
          "internalType": "uint256",
          "name": "",
          "type": "uint256"
        }
      ],
      "stateMutability": "view",
      "type": "function"
    },
    {
      "inputs": [],
      "name": "getNodeAddresses",
      "outputs": [
        {
          "internalType": "address[]",
          "name": "",
          "type": "address[]"
        }
      ],
      "stateMutability": "view",
      "type": "function"
    },
    {
      "inputs": [
        {
          "internalType": "uint256",
          "name": "bucketNumber",
          "type": "uint256"
        }
      ],
      "name": "getOutlierNodes",
      "outputs": [
        {
          "internalType": "address[]",
          "name": "",
          "type": "address[]"
        }
      ],
      "stateMutability": "view",
      "type": "function"
    },
    {
      "inputs": [
        {
          "internalType": "uint256",
          "name": "bucketNumber",
          "type": "uint256"
        }
      ],
      "name": "getPastPrice",
      "outputs": [
        {
          "internalType": "uint256",
          "name": "",
          "type": "uint256"
        }
      ],
      "stateMutability": "view",
      "type": "function"
    },
    {
      "inputs": [
        {
          "internalType": "address",
          "name": "nodeAddress",
          "type": "address"
        },
        {
          "internalType": "uint256",
          "name": "bucketNumber",
          "type": "uint256"
        }
      ],
      "name": "getSlashedStatus",
      "outputs": [
        {
          "internalType": "uint256",
          "name": "price",
          "type": "uint256"
        },
        {
          "internalType": "bool",
          "name": "slashed",
          "type": "bool"
        }
      ],
      "stateMutability": "view",
      "type": "function"
    },
    {
      "inputs": [
        {
          "internalType": "uint256",
          "name": "",
          "type": "uint256"
        }
      ],
      "name": "nodeAddresses",
      "outputs": [
        {
          "internalType": "address",
          "name": "",
          "type": "address"
        }
      ],
      "stateMutability": "view",
      "type": "function"
    },
    {
      "inputs": [
        {
          "internalType": "address",
          "name": "",
          "type": "address"
        }
      ],
      "name": "nodes",
      "outputs": [
        {
          "internalType": "uint256",
          "name": "stakedAmount",
          "type": "uint256"
        },
        {
          "internalType": "uint256",
          "name": "lastReportedBucket",
          "type": "uint256"
        },
        {
          "internalType": "uint256",
          "name": "reportCount",
          "type": "uint256"
        },
        {
          "internalType": "uint256",
          "name": "claimedReportCount",
          "type": "uint256"
        },
        {
          "internalType": "uint256",
          "name": "firstBucket",
          "type": "uint256"
        },
        {
          "internalType": "bool",
          "name": "active",
          "type": "bool"
        }
      ],
      "stateMutability": "view",
      "type": "function"
    },
    {
      "inputs": [],
      "name": "oracleToken",
      "outputs": [
        {
          "internalType": "contract ORA",
          "name": "",
          "type": "address"
        }
      ],
      "stateMutability": "view",
      "type": "function"
    },
    {
      "inputs": [
        {
          "internalType": "uint256",
          "name": "bucketNumber",
          "type": "uint256"
        }
      ],
      "name": "recordBucketMedian",
      "outputs": [],
      "stateMutability": "nonpayable",
      "type": "function"
    },
    {
      "inputs": [
        {
          "internalType": "uint256",
          "name": "amount",
          "type": "uint256"
        }
      ],
      "name": "registerNode",
      "outputs": [],
      "stateMutability": "nonpayable",
      "type": "function"
    },
    {
      "inputs": [
        {
          "internalType": "uint256",
          "name": "price",
          "type": "uint256"
        }
      ],
      "name": "reportPrice",
      "outputs": [],
      "stateMutability": "nonpayable",
      "type": "function"
    },
    {
      "inputs": [
        {
          "internalType": "address",
          "name": "nodeToSlash",
          "type": "address"
        },
        {
          "internalType": "uint256",
          "name": "bucketNumber",
          "type": "uint256"
        },
        {
          "internalType": "uint256",
          "name": "reportIndex",
          "type": "uint256"
        },
        {
          "internalType": "uint256",
          "name": "nodeAddressesIndex",
          "type": "uint256"
        }
      ],
      "name": "slashNode",
      "outputs": [],
      "stateMutability": "nonpayable",
      "type": "function"
    }
  ],
  "transactionHash": "0x1f06084bafb9f52b9f0291fa5fb26bfb42509663b982d05ce10e700e7bd72802",
  "args": [
    "0xc764417E66fFAedfD82643c3f581C4712Cb3efd8"
  ],
  "numDeployments": 1,
  "solcInputHash": "a7b5af77a6741cefa54a4f74b93bb57c",
  "bytecode": "0x6080604052348015600f57600080fd5b50604051611ac8380380611ac8833981016040819052602c916050565b600080546001600160a01b0319166001600160a01b0392909216919091179055607e565b600060208284031215606157600080fd5b81516001600160a01b0381168114607757600080fd5b9392505050565b611a3b8061008d6000396000f3fe608060405234801561001057600080fd5b506004361061018e5760003560e01c80637f980edf116100de578063b88a802f11610097578063c7f898f011610071578063c7f898f014610386578063eb4f16b514610399578063eecd509a146103ac578063ff24357a146101b957600080fd5b8063b88a802f1461036b578063bd53436914610250578063c4d770901461037357600080fd5b80637f980edf146102ed57806383472fcf146103005780638bc116a21461032b5780638e15f47314610353578063a3cda9d11461035b578063ac9d5d691461036357600080fd5b80632e9498241161014b57806357772d311161012557806357772d311461029c5780636cfcca9c146102af5780636f85c7e4146102c25780637979e0ea146102ca57600080fd5b80632e9498241461025f5780633e07505c14610274578063479c92fe1461028957600080fd5b806302211f5e1461019357806308dbbb03146101b957806311ce06a2146101c9578063189a5a17146101d157806325c6840314610247578063298a9b2014610250575b600080fd5b6101a66101a1366004611814565b6103bf565b6040519081526020015b60405180910390f35b6101a668056bc75e2d6310000081565b6101a66104f2565b6102186101df366004611814565b60016020819052600091825260409091208054918101546002820154600383015460048401546005909401549293919290919060ff1686565b6040805196875260208701959095529385019290925260608401526080830152151560a082015260c0016101b0565b6101a66103e881565b6101a6670de0b6b3a764000081565b61026761050f565b6040516101b0919061182f565b61028761028236600461187b565b610571565b005b61026761029736600461187b565b6106eb565b6102876102aa366004611894565b6108fa565b6102876102bd36600461187b565b610c71565b6101a6600281565b6101a66102d836600461187b565b60026020526000908152604090206003015481565b6102876102fb36600461187b565b610d73565b600054610313906001600160a01b031681565b6040516001600160a01b0390911681526020016101b0565b61033e6103393660046118cd565b610f6f565b604080519283529015156020830152016101b0565b6101a6611019565b6101a6601881565b6101a6600a81565b610287611072565b61031361038136600461187b565b61118c565b61028761039436600461187b565b6111b6565b6102876103a736600461187b565b611318565b6101a66103ba36600461187b565b611461565b6001600160a01b0381166000908152600160208181526040808420815160c08101835281548152938101549284019290925260028201549083015260038101546060830152600481015460808301526005015460ff16151560a0820181905261042b5750600092915050565b60006104356104f2565b90508160800151810361044a57505192915050565b600082608001518261045c919061190d565b6040840151602085015191925090831480156104785750600081115b1561048b5761048860018261190d565b90505b81811061049d57505090519392505050565b60006104a9828461190d565b905060006104bf670de0b6b3a764000083611920565b86519091508111156104d957506000979650505050505050565b85516104e690829061190d565b98975050505050505050565b60006104ff60184361194d565b61050a906001611961565b905090565b6060600380548060200260200160405190810160405280929190818152602001828054801561056757602002820191906000526020600020905b81546001600160a01b03168152600190910190602001808311610549575b5050505050905090565b3360009081526001602052604081206005015460ff16151590036105a7576040516229eaad60e31b815260040160405180910390fd5b3360009081526001602052604090206105be6104f2565b600282600101546105cf9190611961565b11156105ee57604051630832f48360e21b815260040160405180910390fd5b60006105f9336103bf565b9050610605338461149d565b336000818152600160205260408082208290558154905163a9059cbb60e01b815260048101939093526024830184905290916001600160a01b039091169063a9059cbb906044016020604051808303816000875af115801561066b573d6000803e3d6000fd5b505050506040513d601f19601f8201168201806040525081019061068f9190611974565b9050806106af576040516312171d8360e31b815260040160405180910390fd5b60405182815233907ffc3b44de028b3d70241998c7d84e5520785226d0c49d16d2b487735225254b3b906020015b60405180910390a250505050565b600081815260026020526040812060038101546060920361071f57604051630d60e2c560e21b815260040160405180910390fd5b600181015460009067ffffffffffffffff81111561073f5761073f611996565b604051908082528060200260200182016040528015610768578160200160208202803683370190505b5090506000805b6001840154811015610851576000846001018281548110610792576107926119ac565b60009182526020808320909101546001600160a01b03168083529087905260409091205490915060ff16156107c75750610849565b60008560020183815481106107de576107de6119ac565b90600052602060002001549050806000036107fa575050610849565b6108088187600301546115e5565b156108465781858581518110610820576108206119ac565b6001600160a01b039092166020928302919091019091015283610842816119c2565b9450505b50505b60010161076f565b5060008167ffffffffffffffff81111561086d5761086d611996565b604051908082528060200260200182016040528015610896578160200160208202803683370190505b50905060005b828110156108f0578381815181106108b6576108b66119ac565b60200260200101518282815181106108d0576108d06119ac565b6001600160a01b039092166020928302919091019091015260010161089c565b5095945050505050565b6001600160a01b03841660009081526001602052604090206005015460ff16610935576040516229eaad60e31b815260040160405180910390fd5b8261093e6104f2565b0361095c57604051638de4068d60e01b815260040160405180910390fd5b6000838152600260205260408120600381015490910361098f57604051630d60e2c560e21b815260040160405180910390fd5b6001600160a01b03851660009081526020829052604090205460ff16156109c95760405163640d410760e11b815260040160405180910390fd5b600181015483106109ed57604051634e23d03560e01b815260040160405180910390fd5b806001018381548110610a0257610a026119ac565b6000918252602090912001546001600160a01b03868116911614610a395760405163a2f90c8160e01b815260040160405180910390fd5b6000816002018481548110610a5057610a506119ac565b9060005260206000200154905080600003610a7e576040516339e78cf960e11b815260040160405180910390fd5b610a8c8183600301546115e5565b610aa957604051632626606360e11b815260040160405180910390fd5b6001600160a01b038616600090815260208381526040808320805460ff191660019081179091559091528120805490919068056bc75e2d6310000011610af85768056bc75e2d63100000610afb565b81545b905080826000016000828254610b11919061190d565b90915550508154600003610b6e57610b29888661149d565b876001600160a01b03167ffc3b44de028b3d70241998c7d84e5520785226d0c49d16d2b487735225254b3b6000604051610b6591815260200190565b60405180910390a25b60006064610b7d600a84611920565b610b87919061194d565b6000805460405163a9059cbb60e01b81523360048201526024810184905292935090916001600160a01b039091169063a9059cbb906044016020604051808303816000875af1158015610bde573d6000803e3d6000fd5b505050506040513d601f19601f82011682018060405250810190610c029190611974565b905080610c22576040516312171d8360e31b815260040160405180910390fd5b896001600160a01b03167f51cf713376ddb1e5f5828bb6aa39d99de812176d62c3d3550bdc4e0b5e86e1a584604051610c5d91815260200190565b60405180910390a250505050505050505050565b6000818152600260205260409020600381015415610ca257604051634032e39760e11b815260040160405180910390fd5b610caa6104f2565b8210610cc957604051638de4068d60e01b815260040160405180910390fd5b600081600201805480602002602001604051908101604052809291908181526020018280548015610d1957602002820191906000526020600020905b815481526020019060010190808311610d05575b50505050509050610d2981611632565b610d3281611723565b6003830181905560405190815283907fedf992fb93a24d0aa183128c5dfb20a7603592bad3feb0702efa3a65260a2dad9060200160405180910390a2505050565b68056bc75e2d63100000811015610d9d576040516378de4a6960e11b815260040160405180910390fd5b3360009081526001602052604090206005015460ff1615610dd157604051630eb0d31360e11b815260040160405180910390fd5b600080546040516323b872dd60e01b8152336004820152306024820152604481018490526001600160a01b03909116906323b872dd906064016020604051808303816000875af1158015610e29573d6000803e3d6000fd5b505050506040513d601f19601f82011682018060405250810190610e4d9190611974565b905080610e6d576040516312171d8360e31b815260040160405180910390fd5b6040518060c00160405280838152602001600081526020016000815260200160008152602001610e9b6104f2565b815260016020918201819052336000818152828452604080822086518155868601518186015586820151600282015560608701516003808301919091556080880151600483015560a0909701516005909101805460ff1916911515919091179055855493840186559490527fc2575a0e9e593c00f959f8c92f12db2869c3395a3b0502d05e2516446f71f85b90910180546001600160a01b0319168217905591518481527ff773bca07d020a1bc1fdd45ea3db573da547dd27180143afaf075c158a84759491015b60405180910390a25050565b60008181526002602052604081208190815b600182015481101561101057856001600160a01b0316826001018281548110610fac57610fac6119ac565b6000918252602090912001546001600160a01b03160361100857816002018181548110610fdb57610fdb6119ac565b60009182526020808320909101546001600160a01b03891683529084905260409091205490945060ff1692505b600101610f81565b50509250929050565b60008060026000600161102a6104f2565b611034919061190d565b81526020019081526020016000209050806003015460000361106957604051630d60e2c560e21b815260040160405180910390fd5b60030154919050565b33600090815260016020526040812060038101546002820154919291611098919061190d565b9050806000036110bb5760405163afb0be3360e01b815260040160405180910390fd5b600282015460038301556000546001600160a01b03166340c10f19336110e9670de0b6b3a764000085611920565b6040516001600160e01b031960e085901b1681526001600160a01b0390921660048301526024820152604401600060405180830381600087803b15801561112f57600080fd5b505af1158015611143573d6000803e3d6000fd5b503392507f4ea3e03797614006774acce32832fbaa20d9d69de554df367f4bb8a98b92e742915061117e9050670de0b6b3a764000084611920565b604051908152602001610f63565b6003818154811061119c57600080fd5b6000918252602090912001546001600160a01b0316905081565b3360009081526001602052604081206005015460ff16151590036111ec576040516229eaad60e31b815260040160405180910390fd5b8060000361120c5760405162bfc92160e01b815260040160405180910390fd5b68056bc75e2d6310000061121f336103bf565b101561123e576040516378de4a6960e11b815260040160405180910390fd5b336000908152600160205260408120906112566104f2565b90508082600101540361127c576040516303309d3f60e11b815260040160405180910390fd5b600081815260026020818152604083206001808201805480830182559086528386200180546001600160a01b0319163317905581840180548083018255908652928520909201879055908501849055908401805491926112db836119c2565b9091555050604080518581526020810184905233917f9e595d16d532e4b0dee9420e99a1a4c9862cfdb004a5d369e9695880daf6d3e091016106dd565b3360009081526001602052604081206005015460ff161515900361134e576040516229eaad60e31b815260040160405180910390fd5b8060000361136f576040516378de4a6960e11b815260040160405180910390fd5b600080546040516323b872dd60e01b8152336004820152306024820152604481018490526001600160a01b03909116906323b872dd906064016020604051808303816000875af11580156113c7573d6000803e3d6000fd5b505050506040513d601f19601f820116820180604052508101906113eb9190611974565b90508061140b576040516312171d8360e31b815260040160405180910390fd5b336000908152600160205260408120805484929061142a908490611961565b909155505060405182815233907f7c717985ac273e663b7f3050f5b15a4388ff6ed952338954f650e2093e13937f90602001610f63565b60008181526002602052604081206003810154820361149357604051630d60e2c560e21b815260040160405180910390fd5b6003015492915050565b60035481106114bf57604051634e23d03560e01b815260040160405180910390fd5b816001600160a01b0316600382815481106114dc576114dc6119ac565b6000918252602090912001546001600160a01b03161461150f5760405163a2f90c8160e01b815260040160405180910390fd5b6003805461151f9060019061190d565b8154811061152f5761152f6119ac565b600091825260209091200154600380546001600160a01b03909216918390811061155b5761155b6119ac565b9060005260206000200160006101000a8154816001600160a01b0302191690836001600160a01b03160217905550600380548061159a5761159a6119db565b60008281526020808220830160001990810180546001600160a01b03191690559092019092556001600160a01b0393909316815260019092525060409020600501805460ff19169055565b6000808284116115fe576115f9848461190d565b611608565b611608838561190d565b905060008361161983612710611920565b611623919061194d565b6103e810925050505b92915050565b805160005b8181101561171e5780600061164d826001611961565b90505b8381101561169e5784828151811061166a5761166a6119ac565b6020026020010151858281518110611684576116846119ac565b60200260200101511015611696578091505b600101611650565b50818114611715578381815181106116b8576116b86119ac565b60200260200101518483815181106116d2576116d26119ac565b60200260200101518584815181106116ec576116ec6119ac565b60200260200101868481518110611705576117056119ac565b6020908102919091010191909152525b50600101611637565b505050565b80516000908082036117485760405163521299a960e01b815260040160405180910390fd5b6117536002826119f1565b6000036117cc57600283611767828461194d565b81518110611777576117776119ac565b602002602001015184600160028561178f919061194d565b611799919061190d565b815181106117a9576117a96119ac565b60200260200101516117bb9190611961565b6117c5919061194d565b9392505050565b826117d860028361194d565b815181106117e8576117e86119ac565b6020026020010151915050919050565b80356001600160a01b038116811461180f57600080fd5b919050565b60006020828403121561182657600080fd5b6117c5826117f8565b602080825282518282018190526000918401906040840190835b818110156118705783516001600160a01b0316835260209384019390920191600101611849565b509095945050505050565b60006020828403121561188d57600080fd5b5035919050565b600080600080608085870312156118aa57600080fd5b6118b3856117f8565b966020860135965060408601359560600135945092505050565b600080604083850312156118e057600080fd5b6118e9836117f8565b946020939093013593505050565b634e487b7160e01b600052601160045260246000fd5b8181038181111561162c5761162c6118f7565b808202811582820484141761162c5761162c6118f7565b634e487b7160e01b600052601260045260246000fd5b60008261195c5761195c611937565b500490565b8082018082111561162c5761162c6118f7565b60006020828403121561198657600080fd5b815180151581146117c557600080fd5b634e487b7160e01b600052604160045260246000fd5b634e487b7160e01b600052603260045260246000fd5b6000600182016119d4576119d46118f7565b5060010190565b634e487b7160e01b600052603160045260246000fd5b600082611a0057611a00611937565b50069056fea2646970667358221220b8c50e56026edd4d7dfb93d7b4dfa075cb1b6228d876179448a56c3c54a2b69164736f6c634300081e0033",
  "devdoc": {
    "kind": "dev",
    "methods": {
      "claimReward()": {
        "details": "Calculates rewards based on time elapsed since last claim."
      },
      "exitNode(uint256)": {
        "details": "Removes the node from the system and sends the stake to the node.      Requires that the the initial waiting period has passed to ensure the      node has been slashed if it reported a bad price before allowing it to exit.",
        "params": {
          "index": "The index of the node to remove in nodeAddresses"
        }
      },
      "getCurrentBucketNumber()": {
        "details": "Returns the current bucket number based on the block number",
        "returns": {
          "_0": "The current bucket number"
        }
      },
      "getEffectiveStake(address)": {
        "details": "Effective stake = stakedAmount - (missedBuckets * INACTIVITY_PENALTY), floored at 0"
      },
      "getLatestPrice()": {
        "details": "Requires that the median for the bucket be recorded via recordBucketMedian",
        "returns": {
          "_0": "The median price for the last finalized bucket"
        }
      },
      "getNodeAddresses()": {
        "returns": {
          "_0": "Array of registered oracle node addresses"
        }
      },
      "getOutlierNodes(uint256)": {
        "params": {
          "bucketNumber": "The bucket number to get the outliers from"
        },
        "returns": {
          "_0": "Array of node addresses considered outliers"
        }
      },
      "getPastPrice(uint256)": {
        "params": {
          "bucketNumber": "The bucket number to read the median price from"
        },
        "returns": {
          "_0": "The median price stored for the bucket"
        }
      },
      "getSlashedStatus(address,uint256)": {
        "params": {
          "bucketNumber": "The bucket number to get the data from",
          "nodeAddress": "The address of the node to get the data for"
        },
        "returns": {
          "price": "The price of the node at the specified bucket",
          "slashed": "The slashed status of the node at the specified bucket"
        }
      },
      "recordBucketMedian(uint256)": {
        "details": "Anyone who uses the oracle's price feed can call this function to record the median price for a bucket.",
        "params": {
          "bucketNumber": "The bucket number to finalize"
        }
      },
      "registerNode(uint256)": {
        "details": "Creates a new OracleNode struct and adds the sender to the nodeAddresses array.      Requires minimum stake amount and prevents duplicate registrations."
      },
      "reportPrice(uint256)": {
        "details": "Updates the node's lastReportedBucket and price in that bucket. Requires sufficient stake.",
        "params": {
          "price": "The new price value to report"
        }
      },
      "slashNode(address,uint256,uint256,uint256)": {
        "params": {
          "bucketNumber": "The bucket number to slash the node from",
          "nodeAddressesIndex": "The index of the node to slash in the nodeAddresses array",
          "nodeToSlash": "The address of the node to slash",
          "reportIndex": "The index of node in the prices and reporters arrays"
        }
      }
    },
    "version": 1
  },
  "userdoc": {
    "errors": {
      "EmptyArray()": [
        {
          "notice": "Errors //////"
        }
      ],
      "NodeNotRegistered()": [
        {
          "notice": "Errors //////"
        }
      ]
    },
    "events": {
      "NodeRegistered(address,uint256)": {
        "notice": "Events /////"
      }
    },
    "kind": "user",
    "methods": {
      "addStake(uint256)": {
        "notice": "Allows a registered node to increase its ORA token stake"
      },
      "claimReward()": {
        "notice": "Allows active and inactive nodes to claim accumulated ORA token rewards"
      },
      "constructor": {
        "notice": "Constructor ///"
      },
      "exitNode(uint256)": {
        "notice": "Allows a registered node to exit the system and withdraw their stake"
      },
      "getCurrentBucketNumber()": {
        "notice": "Returns the current bucket number"
      },
      "getEffectiveStake(address)": {
        "notice": "Returns the effective stake accounting for inactivity penalties via missed buckets"
      },
      "getLatestPrice()": {
        "notice": "Returns the stored median price from the most recently completed bucket"
      },
      "getNodeAddresses()": {
        "notice": "Returns the list of registered oracle node addresses"
      },
      "getOutlierNodes(uint256)": {
        "notice": "Returns the addresses of nodes in a bucket whose reported price deviates beyond the threshold"
      },
      "getPastPrice(uint256)": {
        "notice": "Returns the stored median price from a specified bucket"
      },
      "getSlashedStatus(address,uint256)": {
        "notice": "Returns the price and slashed status of a node at a given bucket"
      },
      "oracleToken()": {
        "notice": "State Variables //"
      },
      "recordBucketMedian(uint256)": {
        "notice": "Records the median price for a bucket once sufficient reports are available"
      },
      "registerNode(uint256)": {
        "notice": "Registers a new oracle node with initial ORA token stake"
      },
      "reportPrice(uint256)": {
        "notice": "Updates the price reported by an oracle node (only registered nodes)"
      },
      "slashNode(address,uint256,uint256,uint256)": {
        "notice": "Slashes a node for giving a price that is deviated too far from the average"
      }
    },
    "version": 1
  },
  "storageLayout": {
    "storage": [
      {
        "astId": 1112,
        "contract": "contracts/01_Staking/StakingOracle.sol:StakingOracle",
        "label": "oracleToken",
        "offset": 0,
        "slot": "0",
        "type": "t_contract(ORA)1065"
      },
      {
        "astId": 1143,
        "contract": "contracts/01_Staking/StakingOracle.sol:StakingOracle",
        "label": "nodes",
        "offset": 0,
        "slot": "1",
        "type": "t_mapping(t_address,t_struct(OracleNode)1125_storage)"
      },
      {
        "astId": 1148,
        "contract": "contracts/01_Staking/StakingOracle.sol:StakingOracle",
        "label": "blockBuckets",
        "offset": 0,
        "slot": "2",
        "type": "t_mapping(t_uint256,t_struct(BlockBucket)1138_storage)"
      },
      {
        "astId": 1151,
        "contract": "contracts/01_Staking/StakingOracle.sol:StakingOracle",
        "label": "nodeAddresses",
        "offset": 0,
        "slot": "3",
        "type": "t_array(t_address)dyn_storage"
      }
    ],
    "types": {
      "t_address": {
        "encoding": "inplace",
        "label": "address",
        "numberOfBytes": "20"
      },
      "t_array(t_address)dyn_storage": {
        "base": "t_address",
        "encoding": "dynamic_array",
        "label": "address[]",
        "numberOfBytes": "32"
      },
      "t_array(t_uint256)dyn_storage": {
        "base": "t_uint256",
        "encoding": "dynamic_array",
        "label": "uint256[]",
        "numberOfBytes": "32"
      },
      "t_bool": {
        "encoding": "inplace",
        "label": "bool",
        "numberOfBytes": "1"
      },
      "t_contract(ORA)1065": {
        "encoding": "inplace",
        "label": "contract ORA",
        "numberOfBytes": "20"
      },
      "t_mapping(t_address,t_bool)": {
        "encoding": "mapping",
        "key": "t_address",
        "label": "mapping(address => bool)",
        "numberOfBytes": "32",
        "value": "t_bool"
      },
      "t_mapping(t_address,t_struct(OracleNode)1125_storage)": {
        "encoding": "mapping",
        "key": "t_address",
        "label": "mapping(address => struct StakingOracle.OracleNode)",
        "numberOfBytes": "32",
        "value": "t_struct(OracleNode)1125_storage"
      },
      "t_mapping(t_uint256,t_struct(BlockBucket)1138_storage)": {
        "encoding": "mapping",
        "key": "t_uint256",
        "label": "mapping(uint256 => struct StakingOracle.BlockBucket)",
        "numberOfBytes": "32",
        "value": "t_struct(BlockBucket)1138_storage"
      },
      "t_struct(BlockBucket)1138_storage": {
        "encoding": "inplace",
        "label": "struct StakingOracle.BlockBucket",
        "members": [
          {
            "astId": 1129,
            "contract": "contracts/01_Staking/StakingOracle.sol:StakingOracle",
            "label": "slashedOffenses",
            "offset": 0,
            "slot": "0",
            "type": "t_mapping(t_address,t_bool)"
          },
          {
            "astId": 1132,
            "contract": "contracts/01_Staking/StakingOracle.sol:StakingOracle",
            "label": "reporters",
            "offset": 0,
            "slot": "1",
            "type": "t_array(t_address)dyn_storage"
          },
          {
            "astId": 1135,
            "contract": "contracts/01_Staking/StakingOracle.sol:StakingOracle",
            "label": "prices",
            "offset": 0,
            "slot": "2",
            "type": "t_array(t_uint256)dyn_storage"
          },
          {
            "astId": 1137,
            "contract": "contracts/01_Staking/StakingOracle.sol:StakingOracle",
            "label": "medianPrice",
            "offset": 0,
            "slot": "3",
            "type": "t_uint256"
          }
        ],
        "numberOfBytes": "128"
      },
      "t_struct(OracleNode)1125_storage": {
        "encoding": "inplace",
        "label": "struct StakingOracle.OracleNode",
        "members": [
          {
            "astId": 1114,
            "contract": "contracts/01_Staking/StakingOracle.sol:StakingOracle",
            "label": "stakedAmount",
            "offset": 0,
            "slot": "0",
            "type": "t_uint256"
          },
          {
            "astId": 1116,
            "contract": "contracts/01_Staking/StakingOracle.sol:StakingOracle",
            "label": "lastReportedBucket",
            "offset": 0,
            "slot": "1",
            "type": "t_uint256"
          },
          {
            "astId": 1118,
            "contract": "contracts/01_Staking/StakingOracle.sol:StakingOracle",
            "label": "reportCount",
            "offset": 0,
            "slot": "2",
            "type": "t_uint256"
          },
          {
            "astId": 1120,
            "contract": "contracts/01_Staking/StakingOracle.sol:StakingOracle",
            "label": "claimedReportCount",
            "offset": 0,
            "slot": "3",
            "type": "t_uint256"
          },
          {
            "astId": 1122,
            "contract": "contracts/01_Staking/StakingOracle.sol:StakingOracle",
            "label": "firstBucket",
            "offset": 0,
            "slot": "4",
            "type": "t_uint256"
          },
          {
            "astId": 1124,
            "contract": "contracts/01_Staking/StakingOracle.sol:StakingOracle",
            "label": "active",
            "offset": 0,
            "slot": "5",
            "type": "t_bool"
          }
        ],
        "numberOfBytes": "192"
      },
      "t_uint256": {
        "encoding": "inplace",
        "label": "uint256",
        "numberOfBytes": "32"
      }
    }
  }
}