{
  "address": "0x10FE58c9e8CB407084d8FB4467b72876B740b5bD",
  "abi": [
    {
      "inputs": [],
      "stateMutability": "nonpayable",
      "type": "constructor"
    },
    {
      "inputs": [],
      "name": "EmptyArray",
      "type": "error"
    },
    {
      "inputs": [],
      "name": "IndexOutOfBounds",
      "type": "error"
    },
    {
      "inputs": [],
      "name": "NoOraclesAvailable",
      "type": "error"
    },
    {
      "inputs": [],
      "name": "OnlyOwner",
      "type": "error"
    },
    {
      "anonymous": false,
      "inputs": [
        {
          "indexed": false,
          "internalType": "address",
          "name": "oracleAddress",
          "type": "address"
        },
        {
          "indexed": false,
          "internalType": "address",
          "name": "oracleOwner",
          "type": "address"
        }
      ],
      "name": "OracleAdded",
      "type": "event"
    },
    {
      "anonymous": false,
      "inputs": [
        {
          "indexed": false,
          "internalType": "address",
          "name": "oracleAddress",
          "type": "address"
        }
      ],
      "name": "OracleRemoved",
      "type": "event"
    },
    {
      "inputs": [],
      "name": "STALE_DATA_WINDOW",
      "outputs": [
        {
          "internalType": "uint256",
          "name": "",
          "type": "uint256"
        }
      ],
      "stateMutability": "view",
      "type": "function"
    },
    {
      "inputs": [
        {
          "internalType": "address",
          "name": "_owner",
          "type": "address"
        }
      ],
      "name": "addOracle",
      "outputs": [],
      "stateMutability": "nonpayable",
      "type": "function"
    },
    {
      "inputs": [],
      "name": "getActiveOracleNodes",
      "outputs": [
        {
          "internalType": "address[]",
          "name": "",
          "type": "address[]"
        }
      ],
      "stateMutability": "view",
      "type": "function"
    },
    {
      "inputs": [],
      "name": "getPrice",
      "outputs": [
        {
          "internalType": "uint256",
          "name": "",
          "type": "uint256"
        }
      ],
      "stateMutability": "view",
      "type": "function"
    },
    {
      "inputs": [
        {
          "internalType": "uint256",
          "name": "",
          "type": "uint256"
        }
      ],
      "name": "oracles",
      "outputs": [
        {
          "internalType": "contract SimpleOracle",
          "name": "",
          "type": "address"
        }
      ],
      "stateMutability": "view",
      "type": "function"
    },
    {
      "inputs": [],
      "name": "owner",
      "outputs": [
        {
          "internalType": "address",
          "name": "",
          "type": "address"
        }
      ],
      "stateMutability": "view",
      "type": "function"
    },
    {
      "inputs": [
        {
          "internalType": "uint256",
          "name": "index",
          "type": "uint256"
        }
      ],
      "name": "removeOracle",
      "outputs": [],
      "stateMutability": "nonpayable",
      "type": "function"
    }
  ],
  "transactionHash": "0x19a9620455c2789bd8d3cbdd2d91a2136c92e48d8c62e0a8dcbae125d58cbeaa",
  "args": [],
  "numDeployments": 1,
  "solcInputHash": "c087e400718ec9064007f4bea13b0fef",
  "bytecode": "0x6080604052348015600f57600080fd5b50600080546001600160a01b03191633179055610d6f806100316000396000f3fe608060405234801561001057600080fd5b506004361061007d5760003560e01c8063977e79231161005b578063977e7923146100da57806398d5fdca146100f0578063df5dd1a5146100f8578063fb152f8c1461010b57600080fd5b80635b69a7d81461008257806380935dbf146100b25780638da5cb5b146100c7575b600080fd5b6100956100903660046109b5565b610120565b6040516001600160a01b0390911681526020015b60405180910390f35b6100c56100c03660046109b5565b61014a565b005b600054610095906001600160a01b031681565b6100e2601881565b6040519081526020016100a9565b6100e26102c9565b6100c56101063660046109ce565b6104d6565b6101136105c5565b6040516100a991906109f7565b6001818154811061013057600080fd5b6000918252602090912001546001600160a01b0316905081565b6000546001600160a01b0316331461017557604051635fc483c560e01b815260040160405180910390fd5b600154811061019757604051634e23d03560e01b815260040160405180910390fd5b6000600182815481106101ac576101ac610a43565b600091825260209091200154600180546001600160a01b0390921692506101d291610a6f565b821461025257600180546101e7908290610a6f565b815481106101f7576101f7610a43565b600091825260209091200154600180546001600160a01b03909216918490811061022357610223610a43565b9060005260206000200160006101000a8154816001600160a01b0302191690836001600160a01b031602179055505b600180548061026357610263610a88565b6000828152602090819020600019908301810180546001600160a01b03191690559091019091556040516001600160a01b03831681527f9c8e7d83025bef8a04c664b2f753f64b8814bdb7e27291d7e50935f18cc3c71291015b60405180910390a15050565b60015460009081036102ee5760405163d9aad26b60e01b815260040160405180910390fd5b60015460009067ffffffffffffffff81111561030c5761030c610a9e565b604051908082528060200260200182016040528015610335578160200160208202803683370190505b509050600042815b600154811015610428576000806001838154811061035d5761035d610a43565b9060005260206000200160009054906101000a90046001600160a01b03166001600160a01b03166398d5fdca6040518163ffffffff1660e01b81526004016040805180830381865afa1580156103b7573d6000803e3d6000fd5b505050506040513d601f19601f820116820180604052508101906103db9190610ab4565b909250905060186103ec8286610a6f565b101561041e578186868151811061040557610405610a43565b60209081029190910101528461041a81610ad8565b9550505b505060010161033d565b5060008267ffffffffffffffff81111561044457610444610a9e565b60405190808252806020026020018201604052801561046d578160200160208202803683370190505b50905060005b838110156104ba5784818151811061048d5761048d610a43565b60200260200101518282815181106104a7576104a7610a43565b6020908102919091010152600101610473565b506104c4816107e2565b6104cd816108d3565b94505050505090565b6000546001600160a01b0316331461050157604051635fc483c560e01b815260040160405180910390fd5b600081604051610510906109a8565b6001600160a01b039091168152602001604051809103906000f08015801561053c573d6000803e3d6000fd5b506001805480820182556000919091527fb10e2d527612073b26eecdfd717e6a320cf44b4afac2b0732d9fcbe2b7fa0cf60180546001600160a01b0319166001600160a01b038381169182179092556040805191825291851660208201529192507f828d2be040dede7698182e08dfa8bfbd663c879aee772509c4a2bd961d0ed43f91016102bd565b60015460609060009067ffffffffffffffff8111156105e6576105e6610a9e565b60405190808252806020026020018201604052801561060f578160200160208202803683370190505b5090506000805b60015481101561073b5760006001828154811061063557610635610a43565b9060005260206000200160009054906101000a90046001600160a01b03166001600160a01b03166398d5fdca6040518163ffffffff1660e01b81526004016040805180830381865afa15801561068f573d6000803e3d6000fd5b505050506040513d601f19601f820116820180604052508101906106b39190610ab4565b91506106c29050601842610a6f565b81111561073257600182815481106106dc576106dc610a43565b9060005260206000200160009054906101000a90046001600160a01b031684848151811061070c5761070c610a43565b6001600160a01b03909216602092830291909101909101528261072e81610ad8565b9350505b50600101610616565b5060008167ffffffffffffffff81111561075757610757610a9e565b604051908082528060200260200182016040528015610780578160200160208202803683370190505b50905060005b828110156107da578381815181106107a0576107a0610a43565b60200260200101518282815181106107ba576107ba610a43565b6001600160a01b0390921660209283029190910190910152600101610786565b509392505050565b805160005b818110156108ce578060006107fd826001610af1565b90505b8381101561084e5784828151811061081a5761081a610a43565b602002602001015185828151811061083457610834610a43565b60200260200101511015610846578091505b600101610800565b508181146108c55783818151811061086857610868610a43565b602002602001015184838151811061088257610882610a43565b602002602001015185848151811061089c5761089c610a43565b602002602001018684815181106108b5576108b5610a43565b6020908102919091010191909152525b506001016107e7565b505050565b80516000908082036108f85760405163521299a960e01b815260040160405180910390fd5b610903600282610b1a565b60000361097c576002836109178284610b2e565b8151811061092757610927610a43565b602002602001015184600160028561093f9190610b2e565b6109499190610a6f565b8151811061095957610959610a43565b602002602001015161096b9190610af1565b6109759190610b2e565b9392505050565b82610988600283610b2e565b8151811061099857610998610a43565b6020026020010151915050919050565b6101f780610b4383390190565b6000602082840312156109c757600080fd5b5035919050565b6000602082840312156109e057600080fd5b81356001600160a01b038116811461097557600080fd5b602080825282518282018190526000918401906040840190835b81811015610a385783516001600160a01b0316835260209384019390920191600101610a11565b509095945050505050565b634e487b7160e01b600052603260045260246000fd5b634e487b7160e01b600052601160045260246000fd5b81810381811115610a8257610a82610a59565b92915050565b634e487b7160e01b600052603160045260246000fd5b634e487b7160e01b600052604160045260246000fd5b60008060408385031215610ac757600080fd5b505080516020909101519092909150565b600060018201610aea57610aea610a59565b5060010190565b80820180821115610a8257610a82610a59565b634e487b7160e01b600052601260045260246000fd5b600082610b2957610b29610b04565b500690565b600082610b3d57610b3d610b04565b50049056fe6080604052348015600f57600080fd5b506040516101f73803806101f7833981016040819052602c916050565b600280546001600160a01b0319166001600160a01b0392909216919091179055607e565b600060208284031215606157600080fd5b81516001600160a01b0381168114607757600080fd5b9392505050565b61016a8061008d6000396000f3fe608060405234801561001057600080fd5b50600436106100575760003560e01c80638da5cb5b1461005c57806391b7f5ed1461008c57806398d5fdca146100a1578063a035b1fe146100bc578063b80777ea146100d3575b600080fd5b60025461006f906001600160a01b031681565b6040516001600160a01b0390911681526020015b60405180910390f35b61009f61009a36600461011b565b6100dc565b005b60005460015460408051928352602083019190915201610083565b6100c560005481565b604051908152602001610083565b6100c560015481565b6000819055426001556040518181527f66cbca4f3c64fecf1dcb9ce094abcf7f68c3450a1d4e3a8e917dd621edb4ebe09060200160405180910390a150565b60006020828403121561012d57600080fd5b503591905056fea26469706673582212205e0eb2c897b1cd70ca6dce9a449a029714a447af03cbe4c40c8308039c3e424f64736f6c634300081e0033a2646970667358221220af26fb50118568afd6f018b7b183649e2a435d11465fcb1787af284f2eb05ff964736f6c634300081e0033",
  "devdoc": {
    "kind": "dev",
    "methods": {
      "addOracle(address)": {
        "details": "Creates a new SimpleOracle instance and adds it to the oracles array.",
        "params": {
          "_owner": "The address that will own the newly created oracle and can update its price"
        }
      },
      "getActiveOracleNodes()": {
        "details": "Iterates through all oracles and filters those with recent timestamps (within STALE_DATA_WINDOW).      Uses a temporary array to collect active nodes, then creates a right-sized return array      for gas optimization.",
        "returns": {
          "_0": "An array of addresses representing the currently active oracle contracts"
        }
      },
      "getPrice()": {
        "details": "Filters oracles with timestamps older than STALE_DATA_WINDOW, then calculates median      of remaining valid prices. Uses StatisticsUtils for sorting and median calculation.",
        "returns": {
          "_0": "The median price from all active oracles"
        }
      },
      "removeOracle(uint256)": {
        "details": "Uses swap-and-pop pattern for gas-efficient removal. Order is not preserved.      Reverts with IndexOutOfBounds, if the provided index is >= oracles.length.",
        "params": {
          "index": "The index of the oracle to remove from the oracles array"
        }
      }
    },
    "version": 1
  },
  "userdoc": {
    "errors": {
      "EmptyArray()": [
        {
          "notice": "Errors //////"
        }
      ],
      "OnlyOwner()": [
        {
          "notice": "Errors //////"
        }
      ]
    },
    "events": {
      "OracleAdded(address,address)": {
        "notice": "Events /////"
      }
    },
    "kind": "user",
    "methods": {
      "addOracle(address)": {
        "notice": "Adds a new oracle to the whitelist by deploying a SimpleOracle contract (only contract owner)"
      },
      "constructor": {
        "notice": "Constructor ///"
      },
      "getActiveOracleNodes()": {
        "notice": "Returns the addresses of all oracles that have updated their price within the last STALE_DATA_WINDOW"
      },
      "getPrice()": {
        "notice": "Returns the aggregated price from all active oracles using median calculation"
      },
      "owner()": {
        "notice": "State Variables //"
      },
      "removeOracle(uint256)": {
        "notice": "Removes an oracle from the whitelist by its array index (only contract owner)"
      }
    },
    "version": 1
  },
  "storageLayout": {
    "storage": [
      {
        "astId": 1021,
        "contract": "contracts/00_Whitelist/WhitelistOracle.sol:WhitelistOracle",
        "label": "owner",
        "offset": 0,
        "slot": "0",
        "type": "t_address"
      },
      {
        "astId": 1025,
        "contract": "contracts/00_Whitelist/WhitelistOracle.sol:WhitelistOracle",
        "label": "oracles",
        "offset": 0,
        "slot": "1",
        "type": "t_array(t_contract(SimpleOracle)1002)dyn_storage"
      }
    ],
    "types": {
      "t_address": {
        "encoding": "inplace",
        "label": "address",
        "numberOfBytes": "20"
      },
      "t_array(t_contract(SimpleOracle)1002)dyn_storage": {
        "base": "t_contract(SimpleOracle)1002",
        "encoding": "dynamic_array",
        "label": "contract SimpleOracle[]",
        "numberOfBytes": "32"
      },
      "t_contract(SimpleOracle)1002": {
        "encoding": "inplace",
        "label": "contract SimpleOracle",
        "numberOfBytes": "20"
      }
    }
  }
}